{
  "_format": "hh-sol-artifact-1",
  "contractName": "NeoFlowClaim",
  "sourceName": "contracts/NeoFlowClaim.sol",
  "abi": [
    {
      "inputs": [
        {
          "internalType": "contract IERC20",
          "name": "_tokenAddress",
          "type": "address"
        }
      ],
      "stateMutability": "nonpayable",
      "type": "constructor"
    },
    {
      "anonymous": false,
      "inputs": [
        {
          "indexed": true,
          "internalType": "address",
          "name": "user",
          "type": "address"
        },
        {
          "indexed": false,
          "internalType": "uint256",
          "name": "amount",
          "type": "uint256"
        }
      ],
      "name": "ClaimableAmountUpdated",
      "type": "event"
    },
    {
      "anonymous": false,
      "inputs": [
        {
          "indexed": true,
          "internalType": "address",
          "name": "to",
          "type": "address"
        },
        {
          "indexed": false,
          "internalType": "uint256",
          "name": "amount",
          "type": "uint256"
        }
      ],
      "name": "EmergencyWithdraw",
      "type": "event"
    },
    {
      "anonymous": false,
      "inputs": [
        {
          "indexed": true,
          "internalType": "address",
          "name": "previousOwner",
          "type": "address"
        },
        {
          "indexed": true,
          "internalType": "address",
          "name": "newOwner",
          "type": "address"
        }
      ],
      "name": "OwnershipTransferred",
      "type": "event"
    },
    {
      "anonymous": false,
      "inputs": [
        {
          "indexed": false,
          "internalType": "address",
          "name": "account",
          "type": "address"
        }
      ],
      "name": "Paused",
      "type": "event"
    },
    {
      "anonymous": false,
      "inputs": [
        {
          "indexed": true,
          "internalType": "address",
          "name": "user",
          "type": "address"
        },
        {
          "indexed": false,
          "internalType": "uint256",
          "name": "amount",
          "type": "uint256"
        }
      ],
      "name": "TokensClaimed",
      "type": "event"
    },
    {
      "anonymous": false,
      "inputs": [
        {
          "indexed": false,
          "internalType": "address",
          "name": "account",
          "type": "address"
        }
      ],
      "name": "Unpaused",
      "type": "event"
    },
    {
      "anonymous": false,
      "inputs": [
        {
          "indexed": false,
          "internalType": "uint256",
          "name": "userCount",
          "type": "uint256"
        }
      ],
      "name": "WhitelistUpdated",
      "type": "event"
    },
    {
      "inputs": [],
      "name": "claimTokens",
      "outputs": [],
      "stateMutability": "nonpayable",
      "type": "function"
    },
    {
      "inputs": [
        {
          "internalType": "address",
          "name": "",
          "type": "address"
        }
      ],
      "name": "claimableAmount",
      "outputs": [
        {
          "internalType": "uint256",
          "name": "",
          "type": "uint256"
        }
      ],
      "stateMutability": "view",
      "type": "function"
    },
    {
      "inputs": [],
      "name": "contractBalance",
      "outputs": [
        {
          "internalType": "uint256",
          "name": "",
          "type": "uint256"
        }
      ],
      "stateMutability": "view",
      "type": "function"
    },
    {
      "inputs": [
        {
          "internalType": "uint256",
          "name": "_amount",
          "type": "uint256"
        }
      ],
      "name": "emergencyWithdraw",
      "outputs": [],
      "stateMutability": "nonpayable",
      "type": "function"
    },
    {
      "inputs": [],
      "name": "getAvailableBalance",
      "outputs": [
        {
          "internalType": "uint256",
          "name": "",
          "type": "uint256"
        }
      ],
      "stateMutability": "view",
      "type": "function"
    },
    {
      "inputs": [],
      "name": "getTotalCommitted",
      "outputs": [
        {
          "internalType": "uint256",
          "name": "",
          "type": "uint256"
        }
      ],
      "stateMutability": "view",
      "type": "function"
    },
    {
      "inputs": [
        {
          "internalType": "address",
          "name": "",
          "type": "address"
        }
      ],
      "name": "hasClaimed",
      "outputs": [
        {
          "internalType": "bool",
          "name": "",
          "type": "bool"
        }
      ],
      "stateMutability": "view",
      "type": "function"
    },
    {
      "inputs": [],
      "name": "owner",
      "outputs": [
        {
          "internalType": "address",
          "name": "",
          "type": "address"
        }
      ],
      "stateMutability": "view",
      "type": "function"
    },
    {
      "inputs": [],
      "name": "pause",
      "outputs": [],
      "stateMutability": "nonpayable",
      "type": "function"
    },
    {
      "inputs": [],
      "name": "paused",
      "outputs": [
        {
          "internalType": "bool",
          "name": "",
          "type": "bool"
        }
      ],
      "stateMutability": "view",
      "type": "function"
    },
    {
      "inputs": [],
      "name": "renounceOwnership",
      "outputs": [],
      "stateMutability": "nonpayable",
      "type": "function"
    },
    {
      "inputs": [
        {
          "internalType": "address[]",
          "name": "_users",
          "type": "address[]"
        },
        {
          "internalType": "uint256[]",
          "name": "_amounts",
          "type": "uint256[]"
        }
      ],
      "name": "setWhitelist",
      "outputs": [],
      "stateMutability": "nonpayable",
      "type": "function"
    },
    {
      "inputs": [],
      "name": "tokenContract",
      "outputs": [
        {
          "internalType": "contract IERC20",
          "name": "",
          "type": "address"
        }
      ],
      "stateMutability": "view",
      "type": "function"
    },
    {
      "inputs": [],
      "name": "totalClaimable",
      "outputs": [
        {
          "internalType": "uint256",
          "name": "",
          "type": "uint256"
        }
      ],
      "stateMutability": "view",
      "type": "function"
    },
    {
      "inputs": [
        {
          "internalType": "address",
          "name": "newOwner",
          "type": "address"
        }
      ],
      "name": "transferOwnership",
      "outputs": [],
      "stateMutability": "nonpayable",
      "type": "function"
    },
    {
      "inputs": [],
      "name": "unpause",
      "outputs": [],
      "stateMutability": "nonpayable",
      "type": "function"
    },
    {
      "inputs": [
        {
          "internalType": "address",
          "name": "_user",
          "type": "address"
        },
        {
          "internalType": "uint256",
          "name": "_amount",
          "type": "uint256"
        }
      ],
      "name": "updateClaimableAmount",
      "outputs": [],
      "stateMutability": "nonpayable",
      "type": "function"
    }
  ],
  "bytecode": "0x608060405234801561001057600080fd5b5060405161136738038061136783398101604081905261002f91610114565b610038336100c4565b6000805460ff60a01b191690556001600160a01b03811661009f5760405162461bcd60e51b815260206004820152601560248201527f496e76616c696420746f6b656e20616464726573730000000000000000000000604482015260640160405180910390fd5b600180546001600160a01b0319166001600160a01b0392909216919091179055610144565b600080546001600160a01b038381166001600160a01b0319831681178455604051919092169283917f8be0079c531659141344cd1fd0a4f28419497f9722a3daafe3b4186f6b6457e09190a35050565b60006020828403121561012657600080fd5b81516001600160a01b038116811461013d57600080fd5b9392505050565b611214806101536000396000f3fe608060405234801561001057600080fd5b506004361061010b5760003560e01c806373b2e80e116100a25780638b7afe2e116100715780638b7afe2e146101f95780638da5cb5b14610201578063e9b3b87714610212578063f013e0e114610225578063f2fde38b1461023857600080fd5b806373b2e80e146101a6578063809dab6a146101c95780638456cb59146101d157806389885049146101d957600080fd5b80635312ea8e116100de5780635312ea8e1461014257806355a373d6146101555780635c975abb14610180578063715018a61461019e57600080fd5b8063307e093f146101105780633f4ba83a146101275780634838ed191461013157806348c54b9d1461013a575b600080fd5b6004545b6040519081526020015b60405180910390f35b61012f61024b565b005b61011460045481565b61012f61025d565b61012f61015036600461100d565b610525565b600154610168906001600160a01b031681565b6040516001600160a01b03909116815260200161011e565b600054600160a01b900460ff165b604051901515815260200161011e565b61012f610705565b61018e6101b4366004611042565b60036020526000908152604090205460ff1681565b610114610717565b61012f6107b8565b6101146101e7366004611042565b60026020526000908152604090205481565b6101146107c8565b6000546001600160a01b0316610168565b61012f610220366004611064565b61083a565b61012f6102333660046110da565b610a7c565b61012f610246366004611042565b610db5565b610253610e2e565b61025b610e88565b565b610265610edd565b33600090815260026020526040902054806102c75760405162461bcd60e51b815260206004820152601c60248201527f436c61696d3a20456e64657265636f206e616f20656c65676976656c0000000060448201526064015b60405180910390fd5b3360009081526003602052604090205460ff16156103275760405162461bcd60e51b815260206004820152601e60248201527f436c61696d3a20546f6b656e73206a612072656976696e64696361646f73000060448201526064016102be565b6001546040516370a0823160e01b81523060048201526000916001600160a01b0316906370a0823190602401602060405180830381865afa158015610370573d6000803e3d6000fd5b505050506040513d601f19601f82011682018060405250810190610394919061114b565b9050818110156103f45760405162461bcd60e51b815260206004820152602560248201527f436c61696d3a2053616c646f20696e737566696369656e7465206e6f20636f6e604482015264747261746f60d81b60648201526084016102be565b336000908152600360205260408120805460ff191660011790556004805484929061042090849061117a565b909155505060015460405163a9059cbb60e01b8152336004820152602481018490526000916001600160a01b03169063a9059cbb906044016020604051808303816000875af1158015610477573d6000803e3d6000fd5b505050506040513d601f19601f8201168201806040525081019061049b9190611193565b9050806104ea5760405162461bcd60e51b815260206004820152601d60248201527f436c61696d3a2046616c6861206e61207472616e73666572656e63696100000060448201526064016102be565b60405183815233907f896e034966eaaf1adc54acc0f257056febbd300c9e47182cf761982cf1f5e430906020015b60405180910390a2505050565b61052d610e2e565b6000811161057d5760405162461bcd60e51b815260206004820152601d60248201527f416d6f756e74206d7573742062652067726561746572207468616e203000000060448201526064016102be565b6000610587610717565b9050818110156105d95760405162461bcd60e51b815260206004820181905260248201527f43616e6e6f7420776974686472617720636f6d6d697474656420746f6b656e7360448201526064016102be565b6001546000906001600160a01b031663a9059cbb6105ff6000546001600160a01b031690565b6040516001600160e01b031960e084901b1681526001600160a01b039091166004820152602481018690526044016020604051808303816000875af115801561064c573d6000803e3d6000fd5b505050506040513d601f19601f820116820180604052508101906106709190611193565b9050806106bf5760405162461bcd60e51b815260206004820152601960248201527f456d657267656e6379207769746864726177206661696c65640000000000000060448201526064016102be565b6000546001600160a01b03166001600160a01b03167f5fafa99d0643513820be26656b45130b01e1c03062e1266bf36f88cbd3bd96958460405161051891815260200190565b61070d610e2e565b61025b6000610f2a565b6001546040516370a0823160e01b815230600482015260009182916001600160a01b03909116906370a0823190602401602060405180830381865afa158015610764573d6000803e3d6000fd5b505050506040513d601f19601f82011682018060405250810190610788919061114b565b9050600061079560045490565b90508082106107af576107a8818361117a565b9250505090565b60009250505090565b6107c0610e2e565b61025b610f7a565b6001546040516370a0823160e01b81523060048201526000916001600160a01b0316906370a0823190602401602060405180830381865afa158015610811573d6000803e3d6000fd5b505050506040513d601f19601f82011682018060405250810190610835919061114b565b905090565b610842610e2e565b61084a610edd565b6001600160a01b0382166108945760405162461bcd60e51b8152602060048201526011602482015270456e64657265636f20696e76616c69646f60781b60448201526064016102be565b6001600160a01b03821660009081526003602052604090205460ff16156108f45760405162461bcd60e51b81526020600482015260146024820152735573756172696f206a612066657a20636c61696d60601b60448201526064016102be565b6001600160a01b03821660009081526006602052604090205460ff16801561093557506001600160a01b03821660009081526003602052604090205460ff16155b1561096c576001600160a01b038216600090815260026020526040812054600480549192909161096690849061117a565b90915550505b6001600160a01b0382166000908152600260209081526040808320849055600690915290205460ff166109fd576005805460018082019092557f036b6384b5eca791c62761152d0c79bb0604c104a5fb6f4eb0703f3154bb3db00180546001600160a01b0319166001600160a01b0385169081179091556000908152600660205260409020805460ff191690911790555b6001600160a01b03821660009081526003602052604090205460ff16610a35578060046000828254610a2f91906111b5565b90915550505b816001600160a01b03167fbeda578c5fd55f6cb6415cf9469543f0b52a638febbf2ea71da10d8c161b116e82604051610a7091815260200190565b60405180910390a25050565b610a84610e2e565b610a8c610edd565b828114610ad25760405162461bcd60e51b815260206004820152601460248201527341727261797320696e636f6d706174697665697360601b60448201526064016102be565b82610b0f5760405162461bcd60e51b815260206004820152600d60248201526c4172726179732076617a696f7360981b60448201526064016102be565b600060048190555b83811015610d7b576000858583818110610b3357610b336111c8565b9050602002016020810190610b489190611042565b6001600160a01b031603610b925760405162461bcd60e51b8152602060048201526011602482015270456e64657265636f20696e76616c69646f60781b60448201526064016102be565b60066000868684818110610ba857610ba86111c8565b9050602002016020810190610bbd9190611042565b6001600160a01b0316815260208101919091526040016000205460ff16610c8f576005858583818110610bf257610bf26111c8565b9050602002016020810190610c079190611042565b81546001808201845560009384526020842090910180546001600160a01b0319166001600160a01b03939093169290921790915590600690878785818110610c5157610c516111c8565b9050602002016020810190610c669190611042565b6001600160a01b031681526020810191909152604001600020805460ff19169115159190911790555b828282818110610ca157610ca16111c8565b9050602002013560026000878785818110610cbe57610cbe6111c8565b9050602002016020810190610cd39190611042565b6001600160a01b03166001600160a01b031681526020019081526020016000208190555060036000868684818110610d0d57610d0d6111c8565b9050602002016020810190610d229190611042565b6001600160a01b0316815260208101919091526040016000205460ff16610d7357828282818110610d5557610d556111c8565b9050602002013560046000828254610d6d91906111b5565b90915550505b600101610b17565b506040518381527fc7f0435a905d261229a9a162170db4f4e1d3f55b33a246cf8abf2aefe4f602fd9060200160405180910390a150505050565b610dbd610e2e565b6001600160a01b038116610e225760405162461bcd60e51b815260206004820152602660248201527f4f776e61626c653a206e6577206f776e657220697320746865207a65726f206160448201526564647265737360d01b60648201526084016102be565b610e2b81610f2a565b50565b6000546001600160a01b0316331461025b5760405162461bcd60e51b815260206004820181905260248201527f4f776e61626c653a2063616c6c6572206973206e6f7420746865206f776e657260448201526064016102be565b610e90610fbd565b6000805460ff60a01b191690557f5db9ee0a495bf2e6ff9c91a7834c1ba4fdd244a5e8aa4e537bd38aeae4b073aa335b6040516001600160a01b03909116815260200160405180910390a1565b600054600160a01b900460ff161561025b5760405162461bcd60e51b815260206004820152601060248201526f14185d5cd8589b194e881c185d5cd95960821b60448201526064016102be565b600080546001600160a01b038381166001600160a01b0319831681178455604051919092169283917f8be0079c531659141344cd1fd0a4f28419497f9722a3daafe3b4186f6b6457e09190a35050565b610f82610edd565b6000805460ff60a01b1916600160a01b1790557f62e78cea01bee320cd4e420270b5ea74000d11b0c9f74754ebdbfc544b05a258610ec03390565b600054600160a01b900460ff1661025b5760405162461bcd60e51b815260206004820152601460248201527314185d5cd8589b194e881b9bdd081c185d5cd95960621b60448201526064016102be565b60006020828403121561101f57600080fd5b5035919050565b80356001600160a01b038116811461103d57600080fd5b919050565b60006020828403121561105457600080fd5b61105d82611026565b9392505050565b6000806040838503121561107757600080fd5b61108083611026565b946020939093013593505050565b60008083601f8401126110a057600080fd5b50813567ffffffffffffffff8111156110b857600080fd5b6020830191508360208260051b85010111156110d357600080fd5b9250929050565b600080600080604085870312156110f057600080fd5b843567ffffffffffffffff81111561110757600080fd5b6111138782880161108e565b909550935050602085013567ffffffffffffffff81111561113357600080fd5b61113f8782880161108e565b95989497509550505050565b60006020828403121561115d57600080fd5b5051919050565b634e487b7160e01b600052601160045260246000fd5b8181038181111561118d5761118d611164565b92915050565b6000602082840312156111a557600080fd5b8151801515811461105d57600080fd5b8082018082111561118d5761118d611164565b634e487b7160e01b600052603260045260246000fdfea2646970667358221220dacddb637f39941319e6e796c44c261f43e185f73a5be10ff727a4b7869365b264736f6c634300081e0033",
  "linkReferences": {},
  "deployedLinkReferences": {}
}