{
  "_format": "hh-sol-artifact-1",
  "contractName": "StakingVault",
  "sourceName": "contracts/StakingVault.sol",
  "abi": [
    {
      "inputs": [
        {
          "internalType": "address",
          "name": "_token",
          "type": "address"
        }
      ],
      "stateMutability": "nonpayable",
      "type": "constructor"
    },
    {
      "anonymous": false,
      "inputs": [
        {
          "indexed": true,
          "internalType": "address",
          "name": "user",
          "type": "address"
        },
        {
          "indexed": false,
          "internalType": "uint256",
          "name": "amount",
          "type": "uint256"
        },
        {
          "indexed": false,
          "internalType": "uint256",
          "name": "reward",
          "type": "uint256"
        },
        {
          "indexed": false,
          "internalType": "uint256",
          "name": "total",
          "type": "uint256"
        }
      ],
      "name": "Claimed",
      "type": "event"
    },
    {
      "anonymous": false,
      "inputs": [
        {
          "indexed": true,
          "internalType": "address",
          "name": "owner",
          "type": "address"
        },
        {
          "indexed": false,
          "internalType": "uint256",
          "name": "amount",
          "type": "uint256"
        }
      ],
      "name": "EmergencyWithdrawn",
      "type": "event"
    },
    {
      "anonymous": false,
      "inputs": [
        {
          "indexed": true,
          "internalType": "address",
          "name": "previousOwner",
          "type": "address"
        },
        {
          "indexed": true,
          "internalType": "address",
          "name": "newOwner",
          "type": "address"
        }
      ],
      "name": "OwnershipTransferred",
      "type": "event"
    },
    {
      "anonymous": false,
      "inputs": [
        {
          "indexed": false,
          "internalType": "address",
          "name": "account",
          "type": "address"
        }
      ],
      "name": "Paused",
      "type": "event"
    },
    {
      "anonymous": false,
      "inputs": [
        {
          "indexed": true,
          "internalType": "address",
          "name": "owner",
          "type": "address"
        },
        {
          "indexed": false,
          "internalType": "uint256",
          "name": "amount",
          "type": "uint256"
        }
      ],
      "name": "RewardsDeposited",
      "type": "event"
    },
    {
      "anonymous": false,
      "inputs": [
        {
          "indexed": true,
          "internalType": "address",
          "name": "user",
          "type": "address"
        },
        {
          "indexed": false,
          "internalType": "uint256",
          "name": "amount",
          "type": "uint256"
        }
      ],
      "name": "Staked",
      "type": "event"
    },
    {
      "anonymous": false,
      "inputs": [
        {
          "indexed": false,
          "internalType": "address",
          "name": "account",
          "type": "address"
        }
      ],
      "name": "Unpaused",
      "type": "event"
    },
    {
      "inputs": [],
      "name": "LOCK_DURATION",
      "outputs": [
        {
          "internalType": "uint256",
          "name": "",
          "type": "uint256"
        }
      ],
      "stateMutability": "view",
      "type": "function"
    },
    {
      "inputs": [],
      "name": "REWARD_RATE",
      "outputs": [
        {
          "internalType": "uint256",
          "name": "",
          "type": "uint256"
        }
      ],
      "stateMutability": "view",
      "type": "function"
    },
    {
      "inputs": [],
      "name": "claim",
      "outputs": [],
      "stateMutability": "nonpayable",
      "type": "function"
    },
    {
      "inputs": [
        {
          "internalType": "uint256",
          "name": "_amount",
          "type": "uint256"
        }
      ],
      "name": "depositRewards",
      "outputs": [],
      "stateMutability": "nonpayable",
      "type": "function"
    },
    {
      "inputs": [
        {
          "internalType": "uint256",
          "name": "_amount",
          "type": "uint256"
        }
      ],
      "name": "emergencyWithdraw",
      "outputs": [],
      "stateMutability": "nonpayable",
      "type": "function"
    },
    {
      "inputs": [],
      "name": "getAvailableBalance",
      "outputs": [
        {
          "internalType": "uint256",
          "name": "",
          "type": "uint256"
        }
      ],
      "stateMutability": "view",
      "type": "function"
    },
    {
      "inputs": [],
      "name": "getTotalStaked",
      "outputs": [
        {
          "internalType": "uint256",
          "name": "",
          "type": "uint256"
        }
      ],
      "stateMutability": "view",
      "type": "function"
    },
    {
      "inputs": [],
      "name": "owner",
      "outputs": [
        {
          "internalType": "address",
          "name": "",
          "type": "address"
        }
      ],
      "stateMutability": "view",
      "type": "function"
    },
    {
      "inputs": [],
      "name": "pause",
      "outputs": [],
      "stateMutability": "nonpayable",
      "type": "function"
    },
    {
      "inputs": [],
      "name": "paused",
      "outputs": [
        {
          "internalType": "bool",
          "name": "",
          "type": "bool"
        }
      ],
      "stateMutability": "view",
      "type": "function"
    },
    {
      "inputs": [],
      "name": "renounceOwnership",
      "outputs": [],
      "stateMutability": "nonpayable",
      "type": "function"
    },
    {
      "inputs": [
        {
          "internalType": "uint256",
          "name": "_amount",
          "type": "uint256"
        }
      ],
      "name": "stake",
      "outputs": [],
      "stateMutability": "nonpayable",
      "type": "function"
    },
    {
      "inputs": [
        {
          "internalType": "address",
          "name": "",
          "type": "address"
        }
      ],
      "name": "stakes",
      "outputs": [
        {
          "internalType": "uint256",
          "name": "amount",
          "type": "uint256"
        },
        {
          "internalType": "uint256",
          "name": "startTime",
          "type": "uint256"
        },
        {
          "internalType": "bool",
          "name": "claimed",
          "type": "bool"
        }
      ],
      "stateMutability": "view",
      "type": "function"
    },
    {
      "inputs": [
        {
          "internalType": "address",
          "name": "_user",
          "type": "address"
        }
      ],
      "name": "timeLeft",
      "outputs": [
        {
          "internalType": "uint256",
          "name": "",
          "type": "uint256"
        }
      ],
      "stateMutability": "view",
      "type": "function"
    },
    {
      "inputs": [],
      "name": "token",
      "outputs": [
        {
          "internalType": "contract IERC20",
          "name": "",
          "type": "address"
        }
      ],
      "stateMutability": "view",
      "type": "function"
    },
    {
      "inputs": [],
      "name": "totalRewardsReserved",
      "outputs": [
        {
          "internalType": "uint256",
          "name": "",
          "type": "uint256"
        }
      ],
      "stateMutability": "view",
      "type": "function"
    },
    {
      "inputs": [],
      "name": "totalStakedAmount",
      "outputs": [
        {
          "internalType": "uint256",
          "name": "",
          "type": "uint256"
        }
      ],
      "stateMutability": "view",
      "type": "function"
    },
    {
      "inputs": [
        {
          "internalType": "address",
          "name": "newOwner",
          "type": "address"
        }
      ],
      "name": "transferOwnership",
      "outputs": [],
      "stateMutability": "nonpayable",
      "type": "function"
    },
    {
      "inputs": [],
      "name": "unpause",
      "outputs": [],
      "stateMutability": "nonpayable",
      "type": "function"
    }
  ],
  "bytecode": "0x608060405234801561001057600080fd5b506040516111cb3803806111cb83398101604081905261002f9161011b565b610038336100cb565b600180556002805460ff191690556001600160a01b0381166100a05760405162461bcd60e51b815260206004820152601560248201527f496e76616c696420746f6b656e20616464726573730000000000000000000000604482015260640160405180910390fd5b600280546001600160a01b0390921661010002610100600160a81b031990921691909117905561014b565b600080546001600160a01b038381166001600160a01b0319831681178455604051919092169283917f8be0079c531659141344cd1fd0a4f28419497f9722a3daafe3b4186f6b6457e09190a35050565b60006020828403121561012d57600080fd5b81516001600160a01b038116811461014457600080fd5b9392505050565b6110718061015a6000396000f3fe608060405234801561001057600080fd5b50600436106101215760003560e01c80635997bb37116100ad5780638bdf67f2116100715780638bdf67f21461021a5780638da5cb5b1461022d578063a694fc3a14610252578063f2fde38b14610265578063fc0c546a1461027857600080fd5b80635997bb37146101e45780635c975abb146101ec578063715018a614610202578063809dab6a1461020a5780638456cb591461021257600080fd5b8063405c649c116100f4578063405c649c146101a3578063485d3834146101b65780634e71d92d146101c05780635312ea8e146101c8578063567e98f9146101db57600080fd5b80630917e7761461012657806316934fc4146101415780631bc0c730146101905780633f4ba83a14610199575b600080fd5b61012e610290565b6040519081526020015b60405180910390f35b61017361014f366004610edc565b60036020526000908152604090208054600182015460029092015490919060ff1683565b604080519384526020840192909252151590820152606001610138565b61012e60055481565b6101a16102a7565b005b61012e6101b1366004610edc565b6102b9565b61012e62ed4e0081565b6101a1610355565b6101a16101d6366004610f0c565b61071e565b61012e60045481565b61012e600a81565b60025460ff166040519015158152602001610138565b6101a1610891565b61012e6108a3565b6101a1610947565b6101a1610228366004610f0c565b610957565b6000546001600160a01b03165b6040516001600160a01b039091168152602001610138565b6101a1610260366004610f0c565b610a52565b6101a1610273366004610edc565b610c45565b60025461023a9061010090046001600160a01b031681565b60006005546004546102a29190610f3b565b905090565b6102af610cbb565b6102b7610d15565b565b6001600160a01b03811660009081526003602090815260408083208151606081018352815480825260018301549482019490945260029091015460ff1615159181019190915290158061030d575080604001515b1561031b5750600092915050565b600062ed4e0082602001516103309190610f3b565b9050804210610343575060009392505050565b61034d4282610f54565b949350505050565b61035d610d67565b610365610dc0565b33600090815260036020526040902080546103b85760405162461bcd60e51b815260206004820152600e60248201526d139bc81cdd185ad948199bdd5b9960921b60448201526064015b60405180910390fd5b600281015460ff16156103ff5760405162461bcd60e51b815260206004820152600f60248201526e105b1c9958591e4818db185a5b5959608a1b60448201526064016103af565b62ed4e0081600101546104129190610f3b565b4210156104615760405162461bcd60e51b815260206004820152601860248201527f4c6f636b20706572696f64206e6f742066696e6973686564000000000000000060448201526064016103af565b60006064600a83600001546104769190610f67565b6104809190610f7e565b905060008183600001546104949190610f3b565b905060006104a0610290565b6002546040516370a0823160e01b81523060048201529192506000916101009091046001600160a01b0316906370a0823190602401602060405180830381865afa1580156104f2573d6000803e3d6000fd5b505050506040513d601f19601f820116820180604052508101906105169190610fa0565b90508181101561058e5760405162461bcd60e51b815260206004820152603860248201527f5661756c743a2053616c646f20696e737566696369656e74652070617261207460448201527f6f646f73206f7320636c61696d732070656e64656e746573000000000000000060648201526084016103af565b828110156105f05760405162461bcd60e51b815260206004820152602960248201527f5661756c743a2053616c646f20696e737566696369656e74652070617261206560448201526873746520636c61696d60b81b60648201526084016103af565b60028501805460ff19166001179055845460048054600090610613908490610f54565b92505081905550836005600082825461062c9190610f54565b909155505060025460405163a9059cbb60e01b81523360048201526024810185905260009161010090046001600160a01b03169063a9059cbb906044016020604051808303816000875af1158015610688573d6000803e3d6000fd5b505050506040513d601f19601f820116820180604052508101906106ac9190610fb9565b9050806106cb5760405162461bcd60e51b81526004016103af90610fdb565b85546040805191825260208201879052810185905233907f9cdcf2f7714cca3508c7f0110b04a90a80a3a8dd0e35de99689db74d28c5383e9060600160405180910390a25050505050506102b760018055565b610726610cbb565b600081116107465760405162461bcd60e51b81526004016103af90611004565b60006107506108a3565b9050818110156107a25760405162461bcd60e51b815260206004820152601e60248201527f496e73756666696369656e7420617661696c61626c652062616c616e6365000060448201526064016103af565b6002546001600160a01b036101009091041663a9059cbb6107cb6000546001600160a01b031690565b6040516001600160e01b031960e084901b1681526001600160a01b039091166004820152602481018590526044016020604051808303816000875af1158015610818573d6000803e3d6000fd5b505050506040513d601f19601f8201168201806040525081019061083c9190610fb9565b6108585760405162461bcd60e51b81526004016103af90610fdb565b60405182815233907f2e39961a70a10f4d46383948095ac2752b3ee642a7c76aa827410aaff08c2e519060200160405180910390a25050565b610899610cbb565b6102b76000610e06565b6002546040516370a0823160e01b815230600482015260009182916101009091046001600160a01b0316906370a0823190602401602060405180830381865afa1580156108f4573d6000803e3d6000fd5b505050506040513d601f19601f820116820180604052508101906109189190610fa0565b90506000610924610290565b905080821061093e576109378183610f54565b9250505090565b60009250505090565b61094f610cbb565b6102b7610e56565b61095f610cbb565b6000811161097f5760405162461bcd60e51b81526004016103af90611004565b6002546040516323b872dd60e01b8152336004820152306024820152604481018390526101009091046001600160a01b0316906323b872dd906064016020604051808303816000875af11580156109da573d6000803e3d6000fd5b505050506040513d601f19601f820116820180604052508101906109fe9190610fb9565b610a1a5760405162461bcd60e51b81526004016103af90610fdb565b60405181815233907fb8b27d0db504fa5d914f1fd330347096e88d5ff94b6c612d32797e7c12a8f66f9060200160405180910390a250565b610a5a610d67565b610a62610dc0565b60008111610a825760405162461bcd60e51b81526004016103af90611004565b3360009081526003602052604090205415610ad15760405162461bcd60e51b815260206004820152600f60248201526e416c7265616479207374616b696e6760881b60448201526064016103af565b6002546040516323b872dd60e01b8152336004820152306024820152604481018390526101009091046001600160a01b0316906323b872dd906064016020604051808303816000875af1158015610b2c573d6000803e3d6000fd5b505050506040513d601f19601f82011682018060405250810190610b509190610fb9565b610b6c5760405162461bcd60e51b81526004016103af90610fdb565b60006064610b7b600a84610f67565b610b859190610f7e565b60408051606081018252848152426020808301918252600083850181815233825260039092529384209251835590516001830155516002909101805460ff1916911515919091179055600480549293508492909190610be5908490610f3b565b925050819055508060056000828254610bfe9190610f3b565b909155505060405182815233907f9e71bc8eea02a63969f509818f2dafb9254532904319f9dbda79b67bd34a5f3d9060200160405180910390a250610c4260018055565b50565b610c4d610cbb565b6001600160a01b038116610cb25760405162461bcd60e51b815260206004820152602660248201527f4f776e61626c653a206e6577206f776e657220697320746865207a65726f206160448201526564647265737360d01b60648201526084016103af565b610c4281610e06565b6000546001600160a01b031633146102b75760405162461bcd60e51b815260206004820181905260248201527f4f776e61626c653a2063616c6c6572206973206e6f7420746865206f776e657260448201526064016103af565b610d1d610e93565b6002805460ff191690557f5db9ee0a495bf2e6ff9c91a7834c1ba4fdd244a5e8aa4e537bd38aeae4b073aa335b6040516001600160a01b03909116815260200160405180910390a1565b600260015403610db95760405162461bcd60e51b815260206004820152601f60248201527f5265656e7472616e637947756172643a207265656e7472616e742063616c6c0060448201526064016103af565b6002600155565b60025460ff16156102b75760405162461bcd60e51b815260206004820152601060248201526f14185d5cd8589b194e881c185d5cd95960821b60448201526064016103af565b600080546001600160a01b038381166001600160a01b0319831681178455604051919092169283917f8be0079c531659141344cd1fd0a4f28419497f9722a3daafe3b4186f6b6457e09190a35050565b610e5e610dc0565b6002805460ff191660011790557f62e78cea01bee320cd4e420270b5ea74000d11b0c9f74754ebdbfc544b05a258610d4a3390565b60025460ff166102b75760405162461bcd60e51b815260206004820152601460248201527314185d5cd8589b194e881b9bdd081c185d5cd95960621b60448201526064016103af565b600060208284031215610eee57600080fd5b81356001600160a01b0381168114610f0557600080fd5b9392505050565b600060208284031215610f1e57600080fd5b5035919050565b634e487b7160e01b600052601160045260246000fd5b80820180821115610f4e57610f4e610f25565b92915050565b81810381811115610f4e57610f4e610f25565b8082028115828204841417610f4e57610f4e610f25565b600082610f9b57634e487b7160e01b600052601260045260246000fd5b500490565b600060208284031215610fb257600080fd5b5051919050565b600060208284031215610fcb57600080fd5b81518015158114610f0557600080fd5b6020808252600f908201526e151c985b9cd9995c8819985a5b1959608a1b604082015260600190565b6020808252601d908201527f416d6f756e74206d7573742062652067726561746572207468616e203000000060408201526060019056fea2646970667358221220f320acb5491c42badc919840604951121e3b64a0db176a719c2ef6f8d72aad3f64736f6c634300081e0033",
  "linkReferences": {},
  "deployedLinkReferences": {}
}