{
  "_format": "hh-sol-artifact-1",
  "contractName": "NeoFlowToken",
  "sourceName": "contracts/NeoFlowToken.sol",
  "abi": [
    {
      "inputs": [
        {
          "internalType": "uint256",
          "name": "initialSupply",
          "type": "uint256"
        }
      ],
      "stateMutability": "nonpayable",
      "type": "constructor"
    },
    {
      "inputs": [],
      "name": "ContractMetadataUnauthorized",
      "type": "error"
    },
    {
      "anonymous": false,
      "inputs": [
        {
          "indexed": true,
          "internalType": "address",
          "name": "owner",
          "type": "address"
        },
        {
          "indexed": true,
          "internalType": "address",
          "name": "spender",
          "type": "address"
        },
        {
          "indexed": false,
          "internalType": "uint256",
          "name": "value",
          "type": "uint256"
        }
      ],
      "name": "Approval",
      "type": "event"
    },
    {
      "anonymous": false,
      "inputs": [
        {
          "indexed": true,
          "internalType": "address",
          "name": "account",
          "type": "address"
        },
        {
          "indexed": false,
          "internalType": "uint256",
          "name": "amount",
          "type": "uint256"
        }
      ],
      "name": "Burned",
      "type": "event"
    },
    {
      "anonymous": false,
      "inputs": [
        {
          "indexed": false,
          "internalType": "string",
          "name": "prevURI",
          "type": "string"
        },
        {
          "indexed": false,
          "internalType": "string",
          "name": "newURI",
          "type": "string"
        }
      ],
      "name": "ContractURIUpdated",
      "type": "event"
    },
    {
      "anonymous": false,
      "inputs": [
        {
          "indexed": true,
          "internalType": "address",
          "name": "previousOwner",
          "type": "address"
        },
        {
          "indexed": true,
          "internalType": "address",
          "name": "newOwner",
          "type": "address"
        }
      ],
      "name": "OwnershipTransferred",
      "type": "event"
    },
    {
      "anonymous": false,
      "inputs": [
        {
          "indexed": true,
          "internalType": "address",
          "name": "from",
          "type": "address"
        },
        {
          "indexed": true,
          "internalType": "address",
          "name": "to",
          "type": "address"
        },
        {
          "indexed": false,
          "internalType": "uint256",
          "name": "value",
          "type": "uint256"
        }
      ],
      "name": "Transfer",
      "type": "event"
    },
    {
      "inputs": [
        {
          "internalType": "address",
          "name": "owner",
          "type": "address"
        },
        {
          "internalType": "address",
          "name": "spender",
          "type": "address"
        }
      ],
      "name": "allowance",
      "outputs": [
        {
          "internalType": "uint256",
          "name": "",
          "type": "uint256"
        }
      ],
      "stateMutability": "view",
      "type": "function"
    },
    {
      "inputs": [
        {
          "internalType": "address",
          "name": "spender",
          "type": "address"
        },
        {
          "internalType": "uint256",
          "name": "amount",
          "type": "uint256"
        }
      ],
      "name": "approve",
      "outputs": [
        {
          "internalType": "bool",
          "name": "",
          "type": "bool"
        }
      ],
      "stateMutability": "nonpayable",
      "type": "function"
    },
    {
      "inputs": [
        {
          "internalType": "address",
          "name": "account",
          "type": "address"
        }
      ],
      "name": "balanceOf",
      "outputs": [
        {
          "internalType": "uint256",
          "name": "",
          "type": "uint256"
        }
      ],
      "stateMutability": "view",
      "type": "function"
    },
    {
      "inputs": [
        {
          "internalType": "uint256",
          "name": "amount",
          "type": "uint256"
        }
      ],
      "name": "burn",
      "outputs": [],
      "stateMutability": "nonpayable",
      "type": "function"
    },
    {
      "inputs": [],
      "name": "contractURI",
      "outputs": [
        {
          "internalType": "string",
          "name": "",
          "type": "string"
        }
      ],
      "stateMutability": "view",
      "type": "function"
    },
    {
      "inputs": [],
      "name": "decimals",
      "outputs": [
        {
          "internalType": "uint8",
          "name": "",
          "type": "uint8"
        }
      ],
      "stateMutability": "view",
      "type": "function"
    },
    {
      "inputs": [
        {
          "internalType": "address",
          "name": "spender",
          "type": "address"
        },
        {
          "internalType": "uint256",
          "name": "subtractedValue",
          "type": "uint256"
        }
      ],
      "name": "decreaseAllowance",
      "outputs": [
        {
          "internalType": "bool",
          "name": "",
          "type": "bool"
        }
      ],
      "stateMutability": "nonpayable",
      "type": "function"
    },
    {
      "inputs": [
        {
          "internalType": "address",
          "name": "spender",
          "type": "address"
        },
        {
          "internalType": "uint256",
          "name": "addedValue",
          "type": "uint256"
        }
      ],
      "name": "increaseAllowance",
      "outputs": [
        {
          "internalType": "bool",
          "name": "",
          "type": "bool"
        }
      ],
      "stateMutability": "nonpayable",
      "type": "function"
    },
    {
      "inputs": [],
      "name": "name",
      "outputs": [
        {
          "internalType": "string",
          "name": "",
          "type": "string"
        }
      ],
      "stateMutability": "view",
      "type": "function"
    },
    {
      "inputs": [],
      "name": "owner",
      "outputs": [
        {
          "internalType": "address",
          "name": "",
          "type": "address"
        }
      ],
      "stateMutability": "view",
      "type": "function"
    },
    {
      "inputs": [],
      "name": "renounceOwnership",
      "outputs": [],
      "stateMutability": "nonpayable",
      "type": "function"
    },
    {
      "inputs": [
        {
          "internalType": "string",
          "name": "_uri",
          "type": "string"
        }
      ],
      "name": "setContractURI",
      "outputs": [],
      "stateMutability": "nonpayable",
      "type": "function"
    },
    {
      "inputs": [],
      "name": "symbol",
      "outputs": [
        {
          "internalType": "string",
          "name": "",
          "type": "string"
        }
      ],
      "stateMutability": "view",
      "type": "function"
    },
    {
      "inputs": [],
      "name": "totalSupply",
      "outputs": [
        {
          "internalType": "uint256",
          "name": "",
          "type": "uint256"
        }
      ],
      "stateMutability": "view",
      "type": "function"
    },
    {
      "inputs": [
        {
          "internalType": "address",
          "name": "to",
          "type": "address"
        },
        {
          "internalType": "uint256",
          "name": "amount",
          "type": "uint256"
        }
      ],
      "name": "transfer",
      "outputs": [
        {
          "internalType": "bool",
          "name": "",
          "type": "bool"
        }
      ],
      "stateMutability": "nonpayable",
      "type": "function"
    },
    {
      "inputs": [
        {
          "internalType": "address",
          "name": "from",
          "type": "address"
        },
        {
          "internalType": "address",
          "name": "to",
          "type": "address"
        },
        {
          "internalType": "uint256",
          "name": "amount",
          "type": "uint256"
        }
      ],
      "name": "transferFrom",
      "outputs": [
        {
          "internalType": "bool",
          "name": "",
          "type": "bool"
        }
      ],
      "stateMutability": "nonpayable",
      "type": "function"
    },
    {
      "inputs": [
        {
          "internalType": "address",
          "name": "newOwner",
          "type": "address"
        }
      ],
      "name": "transferOwnership",
      "outputs": [],
      "stateMutability": "nonpayable",
      "type": "function"
    }
  ],
  "bytecode": "0x608060405234801561001057600080fd5b5060405161138838038061138883398101604081905261002f916101d4565b6040518060400160405280600a8152602001692722a7a33637bba7a32360b11b815250604051806040016040528060068152602001654e454f464c5760d01b8152508160039081610080919061028b565b50600461008d828261028b565b5050506100a66100a16100b660201b60201c565b6100ba565b6100b0338261010c565b50610370565b3390565b600580546001600160a01b038381166001600160a01b0319831681179093556040519116919082907f8be0079c531659141344cd1fd0a4f28419497f9722a3daafe3b4186f6b6457e090600090a35050565b6001600160a01b0382166101665760405162461bcd60e51b815260206004820152601f60248201527f45524332303a206d696e7420746f20746865207a65726f206164647265737300604482015260640160405180910390fd5b80600260008282546101789190610349565b90915550506001600160a01b038216600081815260208181526040808320805486019055518481527fddf252ad1be2c89b69c2b068fc378daa952ba7f163c4a11628f55a4df523b3ef910160405180910390a35050565b505050565b6000602082840312156101e657600080fd5b5051919050565b634e487b7160e01b600052604160045260246000fd5b600181811c9082168061021757607f821691505b60208210810361023757634e487b7160e01b600052602260045260246000fd5b50919050565b601f8211156101cf57806000526020600020601f840160051c810160208510156102645750805b601f840160051c820191505b818110156102845760008155600101610270565b5050505050565b81516001600160401b038111156102a4576102a46101ed565b6102b8816102b28454610203565b8461023d565b6020601f8211600181146102ec57600083156102d45750848201515b600019600385901b1c1916600184901b178455610284565b600084815260208120601f198516915b8281101561031c57878501518255602094850194600190920191016102fc565b508482101561033a5786840151600019600387901b60f8161c191681555b50505050600190811b01905550565b8082018082111561036a57634e487b7160e01b600052601160045260246000fd5b92915050565b6110098061037f6000396000f3fe608060405234801561001057600080fd5b506004361061010b5760003560e01c8063715018a6116100a2578063a457c2d711610071578063a457c2d714610214578063a9059cbb14610227578063dd62ed3e1461023a578063e8a3d4851461024d578063f2fde38b1461025557600080fd5b8063715018a6146101d65780638da5cb5b146101de578063938e3d7b146101f957806395d89b411461020c57600080fd5b8063313ce567116100de578063313ce56714610176578063395093511461018557806342966c681461019857806370a08231146101ad57600080fd5b806306fdde0314610110578063095ea7b31461012e57806318160ddd1461015157806323b872dd14610163575b600080fd5b610118610268565b6040516101259190610c6a565b60405180910390f35b61014161013c366004610ca0565b6102fa565b6040519015158152602001610125565b6002545b604051908152602001610125565b610141610171366004610cca565b610314565b60405160128152602001610125565b610141610193366004610ca0565b610338565b6101ab6101a6366004610d07565b61035a565b005b6101556101bb366004610d20565b6001600160a01b031660009081526020819052604090205490565b6101ab6103f1565b6005546040516001600160a01b039091168152602001610125565b6101ab610207366004610d51565b610405565b610118610436565b610141610222366004610ca0565b610445565b610141610235366004610ca0565b6104c0565b610155610248366004610e0a565b6104ce565b6101186104f9565b6101ab610263366004610d20565b610587565b60606003805461027790610e3d565b80601f01602080910402602001604051908101604052809291908181526020018280546102a390610e3d565b80156102f05780601f106102c5576101008083540402835291602001916102f0565b820191906000526020600020905b8154815290600101906020018083116102d357829003601f168201915b5050505050905090565b6000336103088185856105fd565b60019150505b92915050565b600033610322858285610722565b61032d85858561079c565b506001949350505050565b60003361030881858561034b83836104ce565b6103559190610e77565b6105fd565b600081116103af5760405162461bcd60e51b815260206004820152601d60248201527f416d6f756e74206d7573742062652067726561746572207468616e203000000060448201526064015b60405180910390fd5b6103b93382610940565b60405181815233907f696de425f79f4a40bc6d2122ca50507f0efbeabbff86a84871b7196ab8ea8df79060200160405180910390a250565b6103f9610a6f565b6104036000610ac9565b565b61040d610b1b565b61042a57604051639f7f092560e01b815260040160405180910390fd5b61043381610b48565b50565b60606004805461027790610e3d565b6000338161045382866104ce565b9050838110156104b35760405162461bcd60e51b815260206004820152602560248201527f45524332303a2064656372656173656420616c6c6f77616e63652062656c6f77604482015264207a65726f60d81b60648201526084016103a6565b61032d82868684036105fd565b60003361030881858561079c565b6001600160a01b03918216600090815260016020908152604080832093909416825291909152205490565b6006805461050690610e3d565b80601f016020809104026020016040519081016040528092919081815260200182805461053290610e3d565b801561057f5780601f106105545761010080835404028352916020019161057f565b820191906000526020600020905b81548152906001019060200180831161056257829003601f168201915b505050505081565b61058f610a6f565b6001600160a01b0381166105f45760405162461bcd60e51b815260206004820152602660248201527f4f776e61626c653a206e6577206f776e657220697320746865207a65726f206160448201526564647265737360d01b60648201526084016103a6565b61043381610ac9565b6001600160a01b03831661065f5760405162461bcd60e51b8152602060048201526024808201527f45524332303a20617070726f76652066726f6d20746865207a65726f206164646044820152637265737360e01b60648201526084016103a6565b6001600160a01b0382166106c05760405162461bcd60e51b815260206004820152602260248201527f45524332303a20617070726f766520746f20746865207a65726f206164647265604482015261737360f01b60648201526084016103a6565b6001600160a01b0383811660008181526001602090815260408083209487168084529482529182902085905590518481527f8c5be1e5ebec7d5bd14f71427d1e84f3dd0314c0f7b2291e5b200ac8c7c3b92591015b60405180910390a3505050565b600061072e84846104ce565b9050600019811461079657818110156107895760405162461bcd60e51b815260206004820152601d60248201527f45524332303a20696e73756666696369656e7420616c6c6f77616e636500000060448201526064016103a6565b61079684848484036105fd565b50505050565b6001600160a01b0383166108005760405162461bcd60e51b815260206004820152602560248201527f45524332303a207472616e736665722066726f6d20746865207a65726f206164604482015264647265737360d81b60648201526084016103a6565b6001600160a01b0382166108625760405162461bcd60e51b815260206004820152602360248201527f45524332303a207472616e7366657220746f20746865207a65726f206164647260448201526265737360e81b60648201526084016103a6565b6001600160a01b038316600090815260208190526040902054818110156108da5760405162461bcd60e51b815260206004820152602660248201527f45524332303a207472616e7366657220616d6f756e7420657863656564732062604482015265616c616e636560d01b60648201526084016103a6565b6001600160a01b03848116600081815260208181526040808320878703905593871680835291849020805487019055925185815290927fddf252ad1be2c89b69c2b068fc378daa952ba7f163c4a11628f55a4df523b3ef910160405180910390a3610796565b6001600160a01b0382166109a05760405162461bcd60e51b815260206004820152602160248201527f45524332303a206275726e2066726f6d20746865207a65726f206164647265736044820152607360f81b60648201526084016103a6565b6001600160a01b03821660009081526020819052604090205481811015610a145760405162461bcd60e51b815260206004820152602260248201527f45524332303a206275726e20616d6f756e7420657863656564732062616c616e604482015261636560f01b60648201526084016103a6565b6001600160a01b0383166000818152602081815260408083208686039055600280548790039055518581529192917fddf252ad1be2c89b69c2b068fc378daa952ba7f163c4a11628f55a4df523b3ef9101610715565b505050565b6005546001600160a01b031633146104035760405162461bcd60e51b815260206004820181905260248201527f4f776e61626c653a2063616c6c6572206973206e6f7420746865206f776e657260448201526064016103a6565b600580546001600160a01b038381166001600160a01b0319831681179093556040519116919082907f8be0079c531659141344cd1fd0a4f28419497f9722a3daafe3b4186f6b6457e090600090a35050565b6000610b2f6005546001600160a01b031690565b6001600160a01b0316336001600160a01b031614905090565b600060068054610b5790610e3d565b80601f0160208091040260200160405190810160405280929190818152602001828054610b8390610e3d565b8015610bd05780601f10610ba557610100808354040283529160200191610bd0565b820191906000526020600020905b815481529060010190602001808311610bb357829003601f168201915b505050505090508160069081610be69190610ee6565b507fc9c7c3fe08b88b4df9d4d47ef47d2c43d55c025a0ba88ca442580ed9e7348a168183604051610c18929190610fa5565b60405180910390a15050565b6000815180845260005b81811015610c4a57602081850181015186830182015201610c2e565b506000602082860101526020601f19601f83011685010191505092915050565b602081526000610c7d6020830184610c24565b9392505050565b80356001600160a01b0381168114610c9b57600080fd5b919050565b60008060408385031215610cb357600080fd5b610cbc83610c84565b946020939093013593505050565b600080600060608486031215610cdf57600080fd5b610ce884610c84565b9250610cf660208501610c84565b929592945050506040919091013590565b600060208284031215610d1957600080fd5b5035919050565b600060208284031215610d3257600080fd5b610c7d82610c84565b634e487b7160e01b600052604160045260246000fd5b600060208284031215610d6357600080fd5b813567ffffffffffffffff811115610d7a57600080fd5b8201601f81018413610d8b57600080fd5b803567ffffffffffffffff811115610da557610da5610d3b565b604051601f8201601f19908116603f0116810167ffffffffffffffff81118282101715610dd457610dd4610d3b565b604052818152828201602001861015610dec57600080fd5b81602084016020830137600091810160200191909152949350505050565b60008060408385031215610e1d57600080fd5b610e2683610c84565b9150610e3460208401610c84565b90509250929050565b600181811c90821680610e5157607f821691505b602082108103610e7157634e487b7160e01b600052602260045260246000fd5b50919050565b8082018082111561030e57634e487b7160e01b600052601160045260246000fd5b601f821115610a6a57806000526020600020601f840160051c81016020851015610ebf5750805b601f840160051c820191505b81811015610edf5760008155600101610ecb565b5050505050565b815167ffffffffffffffff811115610f0057610f00610d3b565b610f1481610f0e8454610e3d565b84610e98565b6020601f821160018114610f485760008315610f305750848201515b600019600385901b1c1916600184901b178455610edf565b600084815260208120601f198516915b82811015610f785787850151825560209485019460019092019101610f58565b5084821015610f965786840151600019600387901b60f8161c191681555b50505050600190811b01905550565b604081526000610fb86040830185610c24565b8281036020840152610fca8185610c24565b9594505050505056fea2646970667358221220112107c8f26097d2259f4e4d6773ce10530d3f11ba20c3069a78fd48dca91f8764736f6c634300081e0033",
  "linkReferences": {},
  "deployedLinkReferences": {}
}