{
  "_format": "hh-sol-artifact-1",
  "contractName": "NeoFlowTokenVotes",
  "sourceName": "contracts/NeoFlowTokenVotes.sol",
  "abi": [
    {
      "inputs": [
        {
          "internalType": "uint256",
          "name": "initialSupply",
          "type": "uint256"
        }
      ],
      "stateMutability": "nonpayable",
      "type": "constructor"
    },
    {
      "inputs": [],
      "name": "ContractMetadataUnauthorized",
      "type": "error"
    },
    {
      "inputs": [],
      "name": "InvalidShortString",
      "type": "error"
    },
    {
      "inputs": [
        {
          "internalType": "string",
          "name": "str",
          "type": "string"
        }
      ],
      "name": "StringTooLong",
      "type": "error"
    },
    {
      "anonymous": false,
      "inputs": [
        {
          "indexed": true,
          "internalType": "address",
          "name": "owner",
          "type": "address"
        },
        {
          "indexed": true,
          "internalType": "address",
          "name": "spender",
          "type": "address"
        },
        {
          "indexed": false,
          "internalType": "uint256",
          "name": "value",
          "type": "uint256"
        }
      ],
      "name": "Approval",
      "type": "event"
    },
    {
      "anonymous": false,
      "inputs": [
        {
          "indexed": true,
          "internalType": "address",
          "name": "account",
          "type": "address"
        },
        {
          "indexed": false,
          "internalType": "uint256",
          "name": "amount",
          "type": "uint256"
        }
      ],
      "name": "Burned",
      "type": "event"
    },
    {
      "anonymous": false,
      "inputs": [
        {
          "indexed": false,
          "internalType": "string",
          "name": "prevURI",
          "type": "string"
        },
        {
          "indexed": false,
          "internalType": "string",
          "name": "newURI",
          "type": "string"
        }
      ],
      "name": "ContractURIUpdated",
      "type": "event"
    },
    {
      "anonymous": false,
      "inputs": [
        {
          "indexed": true,
          "internalType": "address",
          "name": "delegator",
          "type": "address"
        },
        {
          "indexed": true,
          "internalType": "address",
          "name": "fromDelegate",
          "type": "address"
        },
        {
          "indexed": true,
          "internalType": "address",
          "name": "toDelegate",
          "type": "address"
        }
      ],
      "name": "DelegateChanged",
      "type": "event"
    },
    {
      "anonymous": false,
      "inputs": [
        {
          "indexed": true,
          "internalType": "address",
          "name": "delegate",
          "type": "address"
        },
        {
          "indexed": false,
          "internalType": "uint256",
          "name": "previousBalance",
          "type": "uint256"
        },
        {
          "indexed": false,
          "internalType": "uint256",
          "name": "newBalance",
          "type": "uint256"
        }
      ],
      "name": "DelegateVotesChanged",
      "type": "event"
    },
    {
      "anonymous": false,
      "inputs": [],
      "name": "EIP712DomainChanged",
      "type": "event"
    },
    {
      "anonymous": false,
      "inputs": [
        {
          "indexed": true,
          "internalType": "address",
          "name": "previousOwner",
          "type": "address"
        },
        {
          "indexed": true,
          "internalType": "address",
          "name": "newOwner",
          "type": "address"
        }
      ],
      "name": "OwnershipTransferred",
      "type": "event"
    },
    {
      "anonymous": false,
      "inputs": [
        {
          "indexed": true,
          "internalType": "address",
          "name": "from",
          "type": "address"
        },
        {
          "indexed": true,
          "internalType": "address",
          "name": "to",
          "type": "address"
        },
        {
          "indexed": false,
          "internalType": "uint256",
          "name": "value",
          "type": "uint256"
        }
      ],
      "name": "Transfer",
      "type": "event"
    },
    {
      "inputs": [],
      "name": "CLOCK_MODE",
      "outputs": [
        {
          "internalType": "string",
          "name": "",
          "type": "string"
        }
      ],
      "stateMutability": "view",
      "type": "function"
    },
    {
      "inputs": [],
      "name": "DOMAIN_SEPARATOR",
      "outputs": [
        {
          "internalType": "bytes32",
          "name": "",
          "type": "bytes32"
        }
      ],
      "stateMutability": "view",
      "type": "function"
    },
    {
      "inputs": [
        {
          "internalType": "address",
          "name": "owner",
          "type": "address"
        },
        {
          "internalType": "address",
          "name": "spender",
          "type": "address"
        }
      ],
      "name": "allowance",
      "outputs": [
        {
          "internalType": "uint256",
          "name": "",
          "type": "uint256"
        }
      ],
      "stateMutability": "view",
      "type": "function"
    },
    {
      "inputs": [
        {
          "internalType": "address",
          "name": "spender",
          "type": "address"
        },
        {
          "internalType": "uint256",
          "name": "amount",
          "type": "uint256"
        }
      ],
      "name": "approve",
      "outputs": [
        {
          "internalType": "bool",
          "name": "",
          "type": "bool"
        }
      ],
      "stateMutability": "nonpayable",
      "type": "function"
    },
    {
      "inputs": [
        {
          "internalType": "address",
          "name": "account",
          "type": "address"
        }
      ],
      "name": "balanceOf",
      "outputs": [
        {
          "internalType": "uint256",
          "name": "",
          "type": "uint256"
        }
      ],
      "stateMutability": "view",
      "type": "function"
    },
    {
      "inputs": [
        {
          "internalType": "uint256",
          "name": "amount",
          "type": "uint256"
        }
      ],
      "name": "burn",
      "outputs": [],
      "stateMutability": "nonpayable",
      "type": "function"
    },
    {
      "inputs": [
        {
          "internalType": "address",
          "name": "account",
          "type": "address"
        },
        {
          "internalType": "uint32",
          "name": "pos",
          "type": "uint32"
        }
      ],
      "name": "checkpoints",
      "outputs": [
        {
          "components": [
            {
              "internalType": "uint32",
              "name": "fromBlock",
              "type": "uint32"
            },
            {
              "internalType": "uint224",
              "name": "votes",
              "type": "uint224"
            }
          ],
          "internalType": "struct ERC20Votes.Checkpoint",
          "name": "",
          "type": "tuple"
        }
      ],
      "stateMutability": "view",
      "type": "function"
    },
    {
      "inputs": [],
      "name": "clock",
      "outputs": [
        {
          "internalType": "uint48",
          "name": "",
          "type": "uint48"
        }
      ],
      "stateMutability": "view",
      "type": "function"
    },
    {
      "inputs": [],
      "name": "contractURI",
      "outputs": [
        {
          "internalType": "string",
          "name": "",
          "type": "string"
        }
      ],
      "stateMutability": "view",
      "type": "function"
    },
    {
      "inputs": [],
      "name": "decimals",
      "outputs": [
        {
          "internalType": "uint8",
          "name": "",
          "type": "uint8"
        }
      ],
      "stateMutability": "view",
      "type": "function"
    },
    {
      "inputs": [
        {
          "internalType": "address",
          "name": "spender",
          "type": "address"
        },
        {
          "internalType": "uint256",
          "name": "subtractedValue",
          "type": "uint256"
        }
      ],
      "name": "decreaseAllowance",
      "outputs": [
        {
          "internalType": "bool",
          "name": "",
          "type": "bool"
        }
      ],
      "stateMutability": "nonpayable",
      "type": "function"
    },
    {
      "inputs": [
        {
          "internalType": "address",
          "name": "delegatee",
          "type": "address"
        }
      ],
      "name": "delegate",
      "outputs": [],
      "stateMutability": "nonpayable",
      "type": "function"
    },
    {
      "inputs": [
        {
          "internalType": "address",
          "name": "delegatee",
          "type": "address"
        },
        {
          "internalType": "uint256",
          "name": "nonce",
          "type": "uint256"
        },
        {
          "internalType": "uint256",
          "name": "expiry",
          "type": "uint256"
        },
        {
          "internalType": "uint8",
          "name": "v",
          "type": "uint8"
        },
        {
          "internalType": "bytes32",
          "name": "r",
          "type": "bytes32"
        },
        {
          "internalType": "bytes32",
          "name": "s",
          "type": "bytes32"
        }
      ],
      "name": "delegateBySig",
      "outputs": [],
      "stateMutability": "nonpayable",
      "type": "function"
    },
    {
      "inputs": [
        {
          "internalType": "address",
          "name": "account",
          "type": "address"
        }
      ],
      "name": "delegates",
      "outputs": [
        {
          "internalType": "address",
          "name": "",
          "type": "address"
        }
      ],
      "stateMutability": "view",
      "type": "function"
    },
    {
      "inputs": [],
      "name": "eip712Domain",
      "outputs": [
        {
          "internalType": "bytes1",
          "name": "fields",
          "type": "bytes1"
        },
        {
          "internalType": "string",
          "name": "name",
          "type": "string"
        },
        {
          "internalType": "string",
          "name": "version",
          "type": "string"
        },
        {
          "internalType": "uint256",
          "name": "chainId",
          "type": "uint256"
        },
        {
          "internalType": "address",
          "name": "verifyingContract",
          "type": "address"
        },
        {
          "internalType": "bytes32",
          "name": "salt",
          "type": "bytes32"
        },
        {
          "internalType": "uint256[]",
          "name": "extensions",
          "type": "uint256[]"
        }
      ],
      "stateMutability": "view",
      "type": "function"
    },
    {
      "inputs": [
        {
          "internalType": "uint256",
          "name": "timepoint",
          "type": "uint256"
        }
      ],
      "name": "getPastTotalSupply",
      "outputs": [
        {
          "internalType": "uint256",
          "name": "",
          "type": "uint256"
        }
      ],
      "stateMutability": "view",
      "type": "function"
    },
    {
      "inputs": [
        {
          "internalType": "address",
          "name": "account",
          "type": "address"
        },
        {
          "internalType": "uint256",
          "name": "timepoint",
          "type": "uint256"
        }
      ],
      "name": "getPastVotes",
      "outputs": [
        {
          "internalType": "uint256",
          "name": "",
          "type": "uint256"
        }
      ],
      "stateMutability": "view",
      "type": "function"
    },
    {
      "inputs": [
        {
          "internalType": "address",
          "name": "account",
          "type": "address"
        }
      ],
      "name": "getVotes",
      "outputs": [
        {
          "internalType": "uint256",
          "name": "",
          "type": "uint256"
        }
      ],
      "stateMutability": "view",
      "type": "function"
    },
    {
      "inputs": [
        {
          "internalType": "address",
          "name": "spender",
          "type": "address"
        },
        {
          "internalType": "uint256",
          "name": "addedValue",
          "type": "uint256"
        }
      ],
      "name": "increaseAllowance",
      "outputs": [
        {
          "internalType": "bool",
          "name": "",
          "type": "bool"
        }
      ],
      "stateMutability": "nonpayable",
      "type": "function"
    },
    {
      "inputs": [],
      "name": "name",
      "outputs": [
        {
          "internalType": "string",
          "name": "",
          "type": "string"
        }
      ],
      "stateMutability": "view",
      "type": "function"
    },
    {
      "inputs": [
        {
          "internalType": "address",
          "name": "owner",
          "type": "address"
        }
      ],
      "name": "nonces",
      "outputs": [
        {
          "internalType": "uint256",
          "name": "",
          "type": "uint256"
        }
      ],
      "stateMutability": "view",
      "type": "function"
    },
    {
      "inputs": [
        {
          "internalType": "address",
          "name": "account",
          "type": "address"
        }
      ],
      "name": "numCheckpoints",
      "outputs": [
        {
          "internalType": "uint32",
          "name": "",
          "type": "uint32"
        }
      ],
      "stateMutability": "view",
      "type": "function"
    },
    {
      "inputs": [],
      "name": "owner",
      "outputs": [
        {
          "internalType": "address",
          "name": "",
          "type": "address"
        }
      ],
      "stateMutability": "view",
      "type": "function"
    },
    {
      "inputs": [
        {
          "internalType": "address",
          "name": "owner",
          "type": "address"
        },
        {
          "internalType": "address",
          "name": "spender",
          "type": "address"
        },
        {
          "internalType": "uint256",
          "name": "value",
          "type": "uint256"
        },
        {
          "internalType": "uint256",
          "name": "deadline",
          "type": "uint256"
        },
        {
          "internalType": "uint8",
          "name": "v",
          "type": "uint8"
        },
        {
          "internalType": "bytes32",
          "name": "r",
          "type": "bytes32"
        },
        {
          "internalType": "bytes32",
          "name": "s",
          "type": "bytes32"
        }
      ],
      "name": "permit",
      "outputs": [],
      "stateMutability": "nonpayable",
      "type": "function"
    },
    {
      "inputs": [],
      "name": "renounceOwnership",
      "outputs": [],
      "stateMutability": "nonpayable",
      "type": "function"
    },
    {
      "inputs": [
        {
          "internalType": "string",
          "name": "_uri",
          "type": "string"
        }
      ],
      "name": "setContractURI",
      "outputs": [],
      "stateMutability": "nonpayable",
      "type": "function"
    },
    {
      "inputs": [],
      "name": "symbol",
      "outputs": [
        {
          "internalType": "string",
          "name": "",
          "type": "string"
        }
      ],
      "stateMutability": "view",
      "type": "function"
    },
    {
      "inputs": [],
      "name": "totalSupply",
      "outputs": [
        {
          "internalType": "uint256",
          "name": "",
          "type": "uint256"
        }
      ],
      "stateMutability": "view",
      "type": "function"
    },
    {
      "inputs": [
        {
          "internalType": "address",
          "name": "to",
          "type": "address"
        },
        {
          "internalType": "uint256",
          "name": "amount",
          "type": "uint256"
        }
      ],
      "name": "transfer",
      "outputs": [
        {
          "internalType": "bool",
          "name": "",
          "type": "bool"
        }
      ],
      "stateMutability": "nonpayable",
      "type": "function"
    },
    {
      "inputs": [
        {
          "internalType": "address",
          "name": "from",
          "type": "address"
        },
        {
          "internalType": "address",
          "name": "to",
          "type": "address"
        },
        {
          "internalType": "uint256",
          "name": "amount",
          "type": "uint256"
        }
      ],
      "name": "transferFrom",
      "outputs": [
        {
          "internalType": "bool",
          "name": "",
          "type": "bool"
        }
      ],
      "stateMutability": "nonpayable",
      "type": "function"
    },
    {
      "inputs": [
        {
          "internalType": "address",
          "name": "newOwner",
          "type": "address"
        }
      ],
      "name": "transferOwnership",
      "outputs": [],
      "stateMutability": "nonpayable",
      "type": "function"
    }
  ],
  "bytecode": "0x61016060405234801561001157600080fd5b5060405161321a38038061321a833981016040819052610030916108ac565b6040518060400160405280600a8152602001692722a7a33637bba7a32360b11b81525080604051806040016040528060018152602001603160f81b8152506040518060400160405280600a8152602001692722a7a33637bba7a32360b11b815250604051806040016040528060068152602001654e454f464c5760d01b81525081600390816100bf9190610963565b5060046100cc8282610963565b506100dc915083905060056101a5565b610120526100eb8160066101a5565b61014052815160208084019190912060e052815190820120610100524660a05261017860e05161010051604080517f8b73c3c69bb8fe3d512ecc4cf759cc79239f7b179b0ffacaa9a75d522b39400f60208201529081019290925260608201524660808201523060a082015260009060c00160405160208183030381529060405280519060200120905090565b60805250503060c0525061018b336101d8565b610195338261022a565b61019f3380610238565b50610acf565b60006020835110156101c1576101ba836102b7565b90506101d2565b816101cc8482610963565b5060ff90505b92915050565b600c80546001600160a01b038381166001600160a01b0319831681179093556040519116919082907f8be0079c531659141344cd1fd0a4f28419497f9722a3daafe3b4186f6b6457e090600090a35050565b61023482826102fe565b5050565b6001600160a01b038281166000818152600960208181526040808420805485845282862054949093528787166001600160a01b03198416811790915590519190951694919391928592917f3134e8a2e6d97e929a7e54011ea5485d7d196dd5f0ba4d4ef95803e8e3fc257f9190a46102b1828483610396565b50505050565b600080829050601f815111156102eb578260405163305a27a960e01b81526004016102e29190610a21565b60405180910390fd5b80516102f682610a6f565b179392505050565b61030882826104c2565b6001600160e01b0361031a6105898216565b11156103815760405162461bcd60e51b815260206004820152603060248201527f4552433230566f7465733a20746f74616c20737570706c79207269736b73206f60448201526f766572666c6f77696e6720766f74657360801b60648201526084016102e2565b6102b1600b610e5661058f60201b17836105a2565b816001600160a01b0316836001600160a01b0316141580156103b85750600081115b156104bd576001600160a01b0383161561043d576001600160a01b0383166000908152600a60209081526040822082916103fc919061071a901b610e6217856105a2565b91509150846001600160a01b03166000805160206131fa8339815191528383604051610432929190918252602082015260400190565b60405180910390a250505b6001600160a01b038216156104bd576001600160a01b0382166000908152600a602090815260408220829161047c919061058f901b610e5617856105a2565b91509150836001600160a01b03166000805160206131fa83398151915283836040516104b2929190918252602082015260400190565b60405180910390a250505b505050565b6001600160a01b0382166105185760405162461bcd60e51b815260206004820152601f60248201527f45524332303a206d696e7420746f20746865207a65726f20616464726573730060448201526064016102e2565b806002600082825461052a9190610aa9565b90915550506001600160a01b038216600081815260208181526040808320805486019055518481527fddf252ad1be2c89b69c2b068fc378daa952ba7f163c4a11628f55a4df523b3ef910160405180910390a361023460008383610726565b60025490565b600061059b8284610aa9565b9392505050565b825460009081908181156105ef5760008781526020902082016000190160408051808201909152905463ffffffff8116825264010000000090046001600160e01b03166020820152610604565b60408051808201909152600080825260208201525b905080602001516001600160e01b0316935061062184868860201c565b925060008211801561064b5750610636610731565b65ffffffffffff16816000015163ffffffff16145b156106905761065983610741565b60008881526020902083016000190180546001600160e01b03929092166401000000000263ffffffff909216919091179055610710565b8660405180604001604052806106ba6106ad61073160201b60201c565b65ffffffffffff166107ae565b63ffffffff1681526020016106ce86610741565b6001600160e01b0390811690915282546001810184556000938452602093849020835194909301519091166401000000000263ffffffff909316929092179101555b5050935093915050565b600061059b8284610abc565b6104bd838383610813565b600061073c43610845565b905090565b60006001600160e01b038211156107aa5760405162461bcd60e51b815260206004820152602760248201527f53616665436173743a2076616c756520646f65736e27742066697420696e20326044820152663234206269747360c81b60648201526084016102e2565b5090565b600063ffffffff8211156107aa5760405162461bcd60e51b815260206004820152602660248201527f53616665436173743a2076616c756520646f65736e27742066697420696e203360448201526532206269747360d01b60648201526084016102e2565b6001600160a01b038381166000908152600960205260408082205485841683529120546104bd92918216911683610396565b600065ffffffffffff8211156107aa5760405162461bcd60e51b815260206004820152602660248201527f53616665436173743a2076616c756520646f65736e27742066697420696e203460448201526538206269747360d01b60648201526084016102e2565b6000602082840312156108be57600080fd5b5051919050565b634e487b7160e01b600052604160045260246000fd5b600181811c908216806108ef57607f821691505b60208210810361090f57634e487b7160e01b600052602260045260246000fd5b50919050565b601f8211156104bd57806000526020600020601f840160051c8101602085101561093c5750805b601f840160051c820191505b8181101561095c5760008155600101610948565b5050505050565b81516001600160401b0381111561097c5761097c6108c5565b6109908161098a84546108db565b84610915565b6020601f8211600181146109c457600083156109ac5750848201515b600019600385901b1c1916600184901b17845561095c565b600084815260208120601f198516915b828110156109f457878501518255602094850194600190920191016109d4565b5084821015610a125786840151600019600387901b60f8161c191681555b50505050600190811b01905550565b602081526000825180602084015260005b81811015610a4f5760208186018101516040868401015201610a32565b506000604082850101526040601f19601f83011684010191505092915050565b8051602080830151919081101561090f5760001960209190910360031b1b16919050565b634e487b7160e01b600052601160045260246000fd5b808201808211156101d2576101d2610a93565b818103818111156101d2576101d2610a93565b60805160a05160c05160e0516101005161012051610140516126d1610b2960003960006107ff015260006107d40152600061129001526000611268015260006111c3015260006111ed0152600061121701526126d16000f3fe608060405234801561001057600080fd5b50600436106101e55760003560e01c80637ecebe001161010f578063a457c2d7116100a2578063dd62ed3e11610071578063dd62ed3e14610445578063e8a3d48514610458578063f1127ed814610460578063f2fde38b1461049d57600080fd5b8063a457c2d7146103f9578063a9059cbb1461040c578063c3cda5201461041f578063d505accf1461043257600080fd5b806391ddadf4116100de57806391ddadf4146103ac578063938e3d7b146103cb57806395d89b41146103de5780639ab24eb0146103e657600080fd5b80637ecebe001461035a57806384b0196e1461036d5780638da5cb5b146103885780638e539e8c1461039957600080fd5b80633a46b1a8116101875780635c19a95c116101565780635c19a95c146102ee5780636fcfff451461030157806370a0823114610329578063715018a61461035257600080fd5b80633a46b1a81461027a57806342966c681461028d5780634bf5d7e9146102a2578063587cde1e146102aa57600080fd5b806323b872dd116101c357806323b872dd1461023d578063313ce567146102505780633644e5151461025f578063395093511461026757600080fd5b806306fdde03146101ea578063095ea7b31461020857806318160ddd1461022b575b600080fd5b6101f26104b0565b6040516101ff9190612114565b60405180910390f35b61021b610216366004612143565b610542565b60405190151581526020016101ff565b6002545b6040519081526020016101ff565b61021b61024b36600461216d565b61055c565b604051601281526020016101ff565b61022f610580565b61021b610275366004612143565b61058f565b61022f610288366004612143565b6105b1565b6102a061029b3660046121aa565b61063b565b005b6101f26106cd565b6102d66102b83660046121c3565b6001600160a01b039081166000908152600960205260409020541690565b6040516001600160a01b0390911681526020016101ff565b6102a06102fc3660046121c3565b610765565b61031461030f3660046121c3565b610772565b60405163ffffffff90911681526020016101ff565b61022f6103373660046121c3565b6001600160a01b031660009081526020819052604090205490565b6102a0610794565b61022f6103683660046121c3565b6107a8565b6103756107c6565b6040516101ff97969594939291906121de565b600c546001600160a01b03166102d6565b61022f6103a73660046121aa565b61084f565b6103b46108b6565b60405165ffffffffffff90911681526020016101ff565b6102a06103d936600461228c565b6108c1565b6101f26108ef565b61022f6103f43660046121c3565b6108fe565b61021b610407366004612143565b610980565b61021b61041a366004612143565b6109fb565b6102a061042d366004612356565b610a09565b6102a06104403660046123ae565b610b3f565b61022f610453366004612419565b610ca3565b6101f2610cce565b61047361046e36600461244c565b610d5c565b60408051825163ffffffff1681526020928301516001600160e01b031692810192909252016101ff565b6102a06104ab3660046121c3565b610de0565b6060600380546104bf9061248c565b80601f01602080910402602001604051908101604052809291908181526020018280546104eb9061248c565b80156105385780601f1061050d57610100808354040283529160200191610538565b820191906000526020600020905b81548152906001019060200180831161051b57829003601f168201915b5050505050905090565b600033610550818585610e6e565b60019150505b92915050565b60003361056a858285610f92565b61057585858561100c565b506001949350505050565b600061058a6111b6565b905090565b6000336105508185856105a28383610ca3565b6105ac91906124d6565b610e6e565b60006105bb6108b6565b65ffffffffffff1682106106125760405162461bcd60e51b815260206004820152601960248201527804552433230566f7465733a20667574757265206c6f6f6b757603c1b60448201526064015b60405180910390fd5b6001600160a01b0383166000908152600a6020526040902061063490836112e1565b9392505050565b6000811161068b5760405162461bcd60e51b815260206004820152601d60248201527f416d6f756e74206d7573742062652067726561746572207468616e20300000006044820152606401610609565b61069533826113ca565b60405181815233907f696de425f79f4a40bc6d2122ca50507f0efbeabbff86a84871b7196ab8ea8df79060200160405180910390a250565b6060436106d86108b6565b65ffffffffffff161461072d5760405162461bcd60e51b815260206004820152601d60248201527f4552433230566f7465733a2062726f6b656e20636c6f636b206d6f64650000006044820152606401610609565b5060408051808201909152601d81527f6d6f64653d626c6f636b6e756d6265722666726f6d3d64656661756c74000000602082015290565b61076f33826113d8565b50565b6001600160a01b0381166000908152600a602052604081205461055690611451565b61079c6114ba565b6107a66000611514565b565b6001600160a01b038116600090815260076020526040812054610556565b6000606080828080836107fa7f00000000000000000000000000000000000000000000000000000000000000006005611566565b6108257f00000000000000000000000000000000000000000000000000000000000000006006611566565b60408051600080825260208201909252600f60f81b9b939a50919850469750309650945092509050565b60006108596108b6565b65ffffffffffff1682106108ab5760405162461bcd60e51b815260206004820152601960248201527804552433230566f7465733a20667574757265206c6f6f6b757603c1b6044820152606401610609565b610556600b836112e1565b600061058a43611611565b6108c9611678565b6108e657604051639f7f092560e01b815260040160405180910390fd5b61076f816116a5565b6060600480546104bf9061248c565b6001600160a01b0381166000908152600a6020526040812054801561096d576001600160a01b0383166000908152600a602052604090208054600019830190811061094b5761094b6124e9565b60009182526020909120015464010000000090046001600160e01b0316610970565b60005b6001600160e01b03169392505050565b6000338161098e8286610ca3565b9050838110156109ee5760405162461bcd60e51b815260206004820152602560248201527f45524332303a2064656372656173656420616c6c6f77616e63652062656c6f77604482015264207a65726f60d81b6064820152608401610609565b6105758286868403610e6e565b60003361055081858561100c565b83421115610a595760405162461bcd60e51b815260206004820152601d60248201527f4552433230566f7465733a207369676e617475726520657870697265640000006044820152606401610609565b604080517fe48329057bfd03d55e49b547132e39cffd9c1820ad7b9d4c5307691425d15adf60208201526001600160a01b038816918101919091526060810186905260808101859052600090610ad390610acb9060a00160405160208183030381529060405280519060200120611781565b8585856117ae565b9050610ade816117d6565b8614610b2c5760405162461bcd60e51b815260206004820152601960248201527f4552433230566f7465733a20696e76616c6964206e6f6e6365000000000000006044820152606401610609565b610b3681886113d8565b50505050505050565b83421115610b8f5760405162461bcd60e51b815260206004820152601d60248201527f45524332305065726d69743a206578706972656420646561646c696e650000006044820152606401610609565b60007f6e71edae12b1b97f4d1f60370fef10105fa2faae0126114a169c64845d6126c9888888610bbe8c6117d6565b6040805160208101969096526001600160a01b0394851690860152929091166060840152608083015260a082015260c0810186905260e0016040516020818303038152906040528051906020012090506000610c1982611781565b90506000610c29828787876117ae565b9050896001600160a01b0316816001600160a01b031614610c8c5760405162461bcd60e51b815260206004820152601e60248201527f45524332305065726d69743a20696e76616c6964207369676e617475726500006044820152606401610609565b610c978a8a8a610e6e565b50505050505050505050565b6001600160a01b03918216600090815260016020908152604080832093909416825291909152205490565b600d8054610cdb9061248c565b80601f0160208091040260200160405190810160405280929190818152602001828054610d079061248c565b8015610d545780601f10610d2957610100808354040283529160200191610d54565b820191906000526020600020905b815481529060010190602001808311610d3757829003601f168201915b505050505081565b60408051808201909152600080825260208201526001600160a01b0383166000908152600a60205260409020805463ffffffff8416908110610da057610da06124e9565b60009182526020918290206040805180820190915291015463ffffffff8116825264010000000090046001600160e01b0316918101919091529392505050565b610de86114ba565b6001600160a01b038116610e4d5760405162461bcd60e51b815260206004820152602660248201527f4f776e61626c653a206e6577206f776e657220697320746865207a65726f206160448201526564647265737360d01b6064820152608401610609565b61076f81611514565b600061063482846124d6565b600061063482846124ff565b6001600160a01b038316610ed05760405162461bcd60e51b8152602060048201526024808201527f45524332303a20617070726f76652066726f6d20746865207a65726f206164646044820152637265737360e01b6064820152608401610609565b6001600160a01b038216610f315760405162461bcd60e51b815260206004820152602260248201527f45524332303a20617070726f766520746f20746865207a65726f206164647265604482015261737360f01b6064820152608401610609565b6001600160a01b0383811660008181526001602090815260408083209487168084529482529182902085905590518481527f8c5be1e5ebec7d5bd14f71427d1e84f3dd0314c0f7b2291e5b200ac8c7c3b925910160405180910390a3505050565b6000610f9e8484610ca3565b905060001981146110065781811015610ff95760405162461bcd60e51b815260206004820152601d60248201527f45524332303a20696e73756666696369656e7420616c6c6f77616e63650000006044820152606401610609565b6110068484848403610e6e565b50505050565b6001600160a01b0383166110705760405162461bcd60e51b815260206004820152602560248201527f45524332303a207472616e736665722066726f6d20746865207a65726f206164604482015264647265737360d81b6064820152608401610609565b6001600160a01b0382166110d25760405162461bcd60e51b815260206004820152602360248201527f45524332303a207472616e7366657220746f20746865207a65726f206164647260448201526265737360e81b6064820152608401610609565b6001600160a01b0383166000908152602081905260409020548181101561114a5760405162461bcd60e51b815260206004820152602660248201527f45524332303a207472616e7366657220616d6f756e7420657863656564732062604482015265616c616e636560d01b6064820152608401610609565b6001600160a01b03848116600081815260208181526040808320878703905593871680835291849020805487019055925185815290927fddf252ad1be2c89b69c2b068fc378daa952ba7f163c4a11628f55a4df523b3ef910160405180910390a3611006848484611803565b6000306001600160a01b037f00000000000000000000000000000000000000000000000000000000000000001614801561120f57507f000000000000000000000000000000000000000000000000000000000000000046145b1561123957507f000000000000000000000000000000000000000000000000000000000000000090565b61058a604080517f8b73c3c69bb8fe3d512ecc4cf759cc79239f7b179b0ffacaa9a75d522b39400f60208201527f0000000000000000000000000000000000000000000000000000000000000000918101919091527f000000000000000000000000000000000000000000000000000000000000000060608201524660808201523060a082015260009060c00160405160208183030381529060405280519060200120905090565b81546000908181600581111561133b5760006112fc8461180e565b61130690856124ff565b600088815260209020909150869082015463ffffffff16111561132b57809150611339565b6113368160016124d6565b92505b505b8082101561138857600061134f83836118f6565b600088815260209020909150869082015463ffffffff16111561137457809150611382565b61137f8160016124d6565b92505b5061133b565b80156113b4576000868152602090208101600019015464010000000090046001600160e01b03166113b7565b60005b6001600160e01b03169695505050505050565b6113d48282611911565b5050565b6001600160a01b038281166000818152600960208181526040808420805485845282862054949093528787166001600160a01b03198416811790915590519190951694919391928592917f3134e8a2e6d97e929a7e54011ea5485d7d196dd5f0ba4d4ef95803e8e3fc257f9190a4611006828483611929565b600063ffffffff8211156114b65760405162461bcd60e51b815260206004820152602660248201527f53616665436173743a2076616c756520646f65736e27742066697420696e203360448201526532206269747360d01b6064820152608401610609565b5090565b600c546001600160a01b031633146107a65760405162461bcd60e51b815260206004820181905260248201527f4f776e61626c653a2063616c6c6572206973206e6f7420746865206f776e65726044820152606401610609565b600c80546001600160a01b038381166001600160a01b0319831681179093556040519116919082907f8be0079c531659141344cd1fd0a4f28419497f9722a3daafe3b4186f6b6457e090600090a35050565b606060ff83146115805761157983611a66565b9050610556565b81805461158c9061248c565b80601f01602080910402602001604051908101604052809291908181526020018280546115b89061248c565b80156116055780601f106115da57610100808354040283529160200191611605565b820191906000526020600020905b8154815290600101906020018083116115e857829003601f168201915b50505050509050610556565b600065ffffffffffff8211156114b65760405162461bcd60e51b815260206004820152602660248201527f53616665436173743a2076616c756520646f65736e27742066697420696e203460448201526538206269747360d01b6064820152608401610609565b600061168c600c546001600160a01b031690565b6001600160a01b0316336001600160a01b031614905090565b6000600d80546116b49061248c565b80601f01602080910402602001604051908101604052809291908181526020018280546116e09061248c565b801561172d5780601f106117025761010080835404028352916020019161172d565b820191906000526020600020905b81548152906001019060200180831161171057829003601f168201915b5050505050905081600d90816117439190612560565b507fc9c7c3fe08b88b4df9d4d47ef47d2c43d55c025a0ba88ca442580ed9e7348a16818360405161177592919061261f565b60405180910390a15050565b600061055661178e6111b6565b8360405161190160f01b8152600281019290925260228201526042902090565b60008060006117bf87878787611aa5565b915091506117cc81611b69565b5095945050505050565b6001600160a01b03811660009081526007602052604090208054600181018255905b50919050565b505050565b6117fe838383611cb3565b60008160000361182057506000919050565b6000600161182d84611ce5565b901c6001901b905060018184816118465761184661264d565b048201901c9050600181848161185e5761185e61264d565b048201901c905060018184816118765761187661264d565b048201901c9050600181848161188e5761188e61264d565b048201901c905060018184816118a6576118a661264d565b048201901c905060018184816118be576118be61264d565b048201901c905060018184816118d6576118d661264d565b048201901c9050610634818285816118f0576118f061264d565b04611d79565b60006119056002848418612663565b610634908484166124d6565b61191b8282611d8f565b611006600b610e6283611ec8565b816001600160a01b0316836001600160a01b03161415801561194b5750600081115b156117fe576001600160a01b038316156119d9576001600160a01b0383166000908152600a60205260408120819061198690610e6285611ec8565b91509150846001600160a01b03167fdec2bacdd2f05b59de34da9b523dff8be42e5e38e818c82fdb0bae774387a72483836040516119ce929190918252602082015260400190565b60405180910390a250505b6001600160a01b038216156117fe576001600160a01b0382166000908152600a602052604081208190611a0f90610e5685611ec8565b91509150836001600160a01b03167fdec2bacdd2f05b59de34da9b523dff8be42e5e38e818c82fdb0bae774387a7248383604051611a57929190918252602082015260400190565b60405180910390a25050505050565b60606000611a738361203d565b604080516020808252818301909252919250600091906020820181803683375050509182525060208101929092525090565b6000807f7fffffffffffffffffffffffffffffff5d576e7357a4501ddfe92f46681b20a0831115611adc5750600090506003611b60565b6040805160008082526020820180845289905260ff881692820192909252606081018690526080810185905260019060a0016020604051602081039080840390855afa158015611b30573d6000803e3d6000fd5b5050604051601f1901519150506001600160a01b038116611b5957600060019250925050611b60565b9150600090505b94509492505050565b6000816004811115611b7d57611b7d612685565b03611b855750565b6001816004811115611b9957611b99612685565b03611be65760405162461bcd60e51b815260206004820152601860248201527f45434453413a20696e76616c6964207369676e617475726500000000000000006044820152606401610609565b6002816004811115611bfa57611bfa612685565b03611c475760405162461bcd60e51b815260206004820152601f60248201527f45434453413a20696e76616c6964207369676e6174757265206c656e677468006044820152606401610609565b6003816004811115611c5b57611c5b612685565b0361076f5760405162461bcd60e51b815260206004820152602260248201527f45434453413a20696e76616c6964207369676e6174757265202773272076616c604482015261756560f01b6064820152608401610609565b6001600160a01b038381166000908152600960205260408082205485841683529120546117fe92918216911683611929565b600080608083901c15611cfa57608092831c92015b604083901c15611d0c57604092831c92015b602083901c15611d1e57602092831c92015b601083901c15611d3057601092831c92015b600883901c15611d4257600892831c92015b600483901c15611d5457600492831c92015b600283901c15611d6657600292831c92015b600183901c156105565760010192915050565b6000818310611d885781610634565b5090919050565b6001600160a01b038216611def5760405162461bcd60e51b815260206004820152602160248201527f45524332303a206275726e2066726f6d20746865207a65726f206164647265736044820152607360f81b6064820152608401610609565b6001600160a01b03821660009081526020819052604090205481811015611e635760405162461bcd60e51b815260206004820152602260248201527f45524332303a206275726e20616d6f756e7420657863656564732062616c616e604482015261636560f01b6064820152608401610609565b6001600160a01b0383166000818152602081815260408083208686039055600280548790039055518581529192917fddf252ad1be2c89b69c2b068fc378daa952ba7f163c4a11628f55a4df523b3ef910160405180910390a36117fe83600084611803565b82546000908190818115611f155760008781526020902082016000190160408051808201909152905463ffffffff8116825264010000000090046001600160e01b03166020820152611f2a565b60408051808201909152600080825260208201525b905080602001516001600160e01b03169350611f4a84868863ffffffff16565b9250600082118015611f745750611f5f6108b6565b65ffffffffffff16816000015163ffffffff16145b15611fb957611f8283612065565b60008881526020902083016000190180546001600160e01b03929092166401000000000263ffffffff909216919091179055612033565b866040518060400160405280611fdd611fd06108b6565b65ffffffffffff16611451565b63ffffffff168152602001611ff186612065565b6001600160e01b0390811690915282546001810184556000938452602093849020835194909301519091166401000000000263ffffffff909316929092179101555b5050935093915050565b600060ff8216601f81111561055657604051632cd44ac360e21b815260040160405180910390fd5b60006001600160e01b038211156114b65760405162461bcd60e51b815260206004820152602760248201527f53616665436173743a2076616c756520646f65736e27742066697420696e20326044820152663234206269747360c81b6064820152608401610609565b6000815180845260005b818110156120f4576020818501810151868301820152016120d8565b506000602082860101526020601f19601f83011685010191505092915050565b60208152600061063460208301846120ce565b80356001600160a01b038116811461213e57600080fd5b919050565b6000806040838503121561215657600080fd5b61215f83612127565b946020939093013593505050565b60008060006060848603121561218257600080fd5b61218b84612127565b925061219960208501612127565b929592945050506040919091013590565b6000602082840312156121bc57600080fd5b5035919050565b6000602082840312156121d557600080fd5b61063482612127565b60ff60f81b8816815260e0602082015260006121fd60e08301896120ce565b828103604084015261220f81896120ce565b606084018890526001600160a01b038716608085015260a0840186905283810360c08501528451808252602080870193509091019060005b81811015612265578351835260209384019390920191600101612247565b50909b9a5050505050505050505050565b634e487b7160e01b600052604160045260246000fd5b60006020828403121561229e57600080fd5b813567ffffffffffffffff8111156122b557600080fd5b8201601f810184136122c657600080fd5b803567ffffffffffffffff8111156122e0576122e0612276565b604051601f8201601f19908116603f0116810167ffffffffffffffff8111828210171561230f5761230f612276565b60405281815282820160200186101561232757600080fd5b81602084016020830137600091810160200191909152949350505050565b803560ff8116811461213e57600080fd5b60008060008060008060c0878903121561236f57600080fd5b61237887612127565b9550602087013594506040870135935061239460608801612345565b9598949750929560808101359460a0909101359350915050565b600080600080600080600060e0888a0312156123c957600080fd5b6123d288612127565b96506123e060208901612127565b955060408801359450606088013593506123fc60808901612345565b9699959850939692959460a0840135945060c09093013592915050565b6000806040838503121561242c57600080fd5b61243583612127565b915061244360208401612127565b90509250929050565b6000806040838503121561245f57600080fd5b61246883612127565b9150602083013563ffffffff8116811461248157600080fd5b809150509250929050565b600181811c908216806124a057607f821691505b6020821081036117f857634e487b7160e01b600052602260045260246000fd5b634e487b7160e01b600052601160045260246000fd5b80820180821115610556576105566124c0565b634e487b7160e01b600052603260045260246000fd5b81810381811115610556576105566124c0565b601f8211156117fe57806000526020600020601f840160051c810160208510156125395750805b601f840160051c820191505b818110156125595760008155600101612545565b5050505050565b815167ffffffffffffffff81111561257a5761257a612276565b61258e81612588845461248c565b84612512565b6020601f8211600181146125c257600083156125aa5750848201515b600019600385901b1c1916600184901b178455612559565b600084815260208120601f198516915b828110156125f257878501518255602094850194600190920191016125d2565b50848210156126105786840151600019600387901b60f8161c191681555b50505050600190811b01905550565b60408152600061263260408301856120ce565b828103602084015261264481856120ce565b95945050505050565b634e487b7160e01b600052601260045260246000fd5b60008261268057634e487b7160e01b600052601260045260246000fd5b500490565b634e487b7160e01b600052602160045260246000fdfea2646970667358221220b5dc036682cfa6fc893dd1cc75b22fd97ca5001729d90cb93c7d38ffbd8b472564736f6c634300081e0033dec2bacdd2f05b59de34da9b523dff8be42e5e38e818c82fdb0bae774387a724",
  "linkReferences": {},
  "deployedLinkReferences": {}
}